{
  "_format": "hh-sol-artifact-1",
  "contractName": "Todo",
  "sourceName": "contracts/Todo.sol",
  "abi": [
    {
      "anonymous": false,
      "inputs": [
        {
          "indexed": false,
          "internalType": "address",
          "name": "recipient",
          "type": "address"
        },
        {
          "indexed": false,
          "internalType": "uint256",
          "name": "taskId",
          "type": "uint256"
        }
      ],
      "name": "AddTask",
      "type": "event"
    },
    {
      "anonymous": false,
      "inputs": [
        {
          "indexed": false,
          "internalType": "uint256",
          "name": "taskId",
          "type": "uint256"
        },
        {
          "indexed": false,
          "internalType": "bool",
          "name": "isDeleted",
          "type": "bool"
        }
      ],
      "name": "DeleteTask",
      "type": "event"
    },
    {
      "inputs": [
        {
          "internalType": "string",
          "name": "ntask",
          "type": "string"
        }
      ],
      "name": "addTask",
      "outputs": [],
      "stateMutability": "nonpayable",
      "type": "function"
    },
    {
      "inputs": [
        {
          "internalType": "uint256",
          "name": "taskId",
          "type": "uint256"
        }
      ],
      "name": "deleteTask",
      "outputs": [],
      "stateMutability": "nonpayable",
      "type": "function"
    },
    {
      "inputs": [],
      "name": "getTask",
      "outputs": [
        {
          "components": [
            {
              "internalType": "uint256",
              "name": "id",
              "type": "uint256"
            },
            {
              "internalType": "string",
              "name": "task",
              "type": "string"
            },
            {
              "internalType": "bool",
              "name": "isDeleted",
              "type": "bool"
            }
          ],
          "internalType": "struct Todo.Task[]",
          "name": "",
          "type": "tuple[]"
        }
      ],
      "stateMutability": "view",
      "type": "function"
    }
  ],
  "bytecode": "0x608060405234801561001057600080fd5b50610e04806100206000396000f3fe608060405234801561001057600080fd5b50600436106100415760003560e01c8063560f3192146100465780636723856214610062578063a31662d21461007e575b600080fd5b610060600480360381019061005b9190610600565b61009c565b005b61007c60048036038101906100779190610773565b610182565b005b6100866102a5565b6040516100939190610977565b60405180910390f35b3373ffffffffffffffffffffffffffffffffffffffff166001600083815260200190815260200160002060009054906101000a900473ffffffffffffffffffffffffffffffffffffffff1673ffffffffffffffffffffffffffffffffffffffff161461010757600080fd5b60016000828154811061011d5761011c610999565b5b906000526020600020906003020160020160006101000a81548160ff0219169083151502179055507ff88a35c3d2016c409a46570b994a17b408dbc83c14a03f521512d50b85386d068160016040516101779291906109e6565b60405180910390a150565b600080805490509050600060405180606001604052808381526020018481526020016000151581525090806001815401808255809150506001900390600052602060002090600302016000909190919091506000820151816000015560208201518160010190816101f39190610c1b565b5060408201518160020160006101000a81548160ff0219169083151502179055505050336001600083815260200190815260200160002060006101000a81548173ffffffffffffffffffffffffffffffffffffffff021916908373ffffffffffffffffffffffffffffffffffffffff1602179055507f1f54e1ba1832d428fbd7e7792beaf62b1fc5a382c207ffd614209c1413e94fda3382604051610299929190610d2e565b60405180910390a15050565b60606000808054905067ffffffffffffffff8111156102c7576102c6610648565b5b60405190808252806020026020018201604052801561030057816020015b6102ed610593565b8152602001906001900390816102e55790505b5090506000805b6000805490508110156104d9573373ffffffffffffffffffffffffffffffffffffffff166001600083815260200190815260200160002060009054906101000a900473ffffffffffffffffffffffffffffffffffffffff1673ffffffffffffffffffffffffffffffffffffffff161480156103b257506000818154811061039157610390610999565b5b906000526020600020906003020160020160009054906101000a900460ff16155b156104c657600081815481106103cb576103ca610999565b5b9060005260206000209060030201604051806060016040529081600082015481526020016001820180546103fe90610a3e565b80601f016020809104026020016040519081016040528092919081815260200182805461042a90610a3e565b80156104775780601f1061044c57610100808354040283529160200191610477565b820191906000526020600020905b81548152906001019060200180831161045a57829003601f168201915b505050505081526020016002820160009054906101000a900460ff1615151515815250508383806104a790610d86565b9450815181106104ba576104b9610999565b5b60200260200101819052505b80806104d190610d86565b915050610307565b5060008167ffffffffffffffff8111156104f6576104f5610648565b5b60405190808252806020026020018201604052801561052f57816020015b61051c610593565b8152602001906001900390816105145790505b50905060005b82811015610589578381815181106105505761054f610999565b5b602002602001015182828151811061056b5761056a610999565b5b6020026020010181905250808061058190610d86565b915050610535565b5080935050505090565b604051806060016040528060008152602001606081526020016000151581525090565b6000604051905090565b600080fd5b600080fd5b6000819050919050565b6105dd816105ca565b81146105e857600080fd5b50565b6000813590506105fa816105d4565b92915050565b600060208284031215610616576106156105c0565b5b6000610624848285016105eb565b91505092915050565b600080fd5b600080fd5b6000601f19601f8301169050919050565b7f4e487b7100000000000000000000000000000000000000000000000000000000600052604160045260246000fd5b61068082610637565b810181811067ffffffffffffffff8211171561069f5761069e610648565b5b80604052505050565b60006106b26105b6565b90506106be8282610677565b919050565b600067ffffffffffffffff8211156106de576106dd610648565b5b6106e782610637565b9050602081019050919050565b82818337600083830152505050565b6000610716610711846106c3565b6106a8565b90508281526020810184848401111561073257610731610632565b5b61073d8482856106f4565b509392505050565b600082601f83011261075a5761075961062d565b5b813561076a848260208601610703565b91505092915050565b600060208284031215610789576107886105c0565b5b600082013567ffffffffffffffff8111156107a7576107a66105c5565b5b6107b384828501610745565b91505092915050565b600081519050919050565b600082825260208201905092915050565b6000819050602082019050919050565b6107f1816105ca565b82525050565b600081519050919050565b600082825260208201905092915050565b60005b83811015610831578082015181840152602081019050610816565b60008484015250505050565b6000610848826107f7565b6108528185610802565b9350610862818560208601610813565b61086b81610637565b840191505092915050565b60008115159050919050565b61088b81610876565b82525050565b60006060830160008301516108a960008601826107e8565b50602083015184820360208601526108c1828261083d565b91505060408301516108d66040860182610882565b508091505092915050565b60006108ed8383610891565b905092915050565b6000602082019050919050565b600061090d826107bc565b61091781856107c7565b935083602082028501610929856107d8565b8060005b85811015610965578484038952815161094685826108e1565b9450610951836108f5565b925060208a0199505060018101905061092d565b50829750879550505050505092915050565b600060208201905081810360008301526109918184610902565b905092915050565b7f4e487b7100000000000000000000000000000000000000000000000000000000600052603260045260246000fd5b6109d1816105ca565b82525050565b6109e081610876565b82525050565b60006040820190506109fb60008301856109c8565b610a0860208301846109d7565b9392505050565b7f4e487b7100000000000000000000000000000000000000000000000000000000600052602260045260246000fd5b60006002820490506001821680610a5657607f821691505b602082108103610a6957610a68610a0f565b5b50919050565b60008190508160005260206000209050919050565b60006020601f8301049050919050565b600082821b905092915050565b600060088302610ad17fffffffffffffffffffffffffffffffffffffffffffffffffffffffffffffffff82610a94565b610adb8683610a94565b95508019841693508086168417925050509392505050565b6000819050919050565b6000610b18610b13610b0e846105ca565b610af3565b6105ca565b9050919050565b6000819050919050565b610b3283610afd565b610b46610b3e82610b1f565b848454610aa1565b825550505050565b600090565b610b5b610b4e565b610b66818484610b29565b505050565b5b81811015610b8a57610b7f600082610b53565b600181019050610b6c565b5050565b601f821115610bcf57610ba081610a6f565b610ba984610a84565b81016020851015610bb8578190505b610bcc610bc485610a84565b830182610b6b565b50505b505050565b600082821c905092915050565b6000610bf260001984600802610bd4565b1980831691505092915050565b6000610c0b8383610be1565b9150826002028217905092915050565b610c24826107f7565b67ffffffffffffffff811115610c3d57610c3c610648565b5b610c478254610a3e565b610c52828285610b8e565b600060209050601f831160018114610c855760008415610c73578287015190505b610c7d8582610bff565b865550610ce5565b601f198416610c9386610a6f565b60005b82811015610cbb57848901518255600182019150602085019450602081019050610c96565b86831015610cd85784890151610cd4601f891682610be1565b8355505b6001600288020188555050505b505050505050565b600073ffffffffffffffffffffffffffffffffffffffff82169050919050565b6000610d1882610ced565b9050919050565b610d2881610d0d565b82525050565b6000604082019050610d436000830185610d1f565b610d5060208301846109c8565b9392505050565b7f4e487b7100000000000000000000000000000000000000000000000000000000600052601160045260246000fd5b6000610d91826105ca565b91507fffffffffffffffffffffffffffffffffffffffffffffffffffffffffffffffff8203610dc357610dc2610d57565b5b60018201905091905056fea2646970667358221220420f87f526ea6e02fe74e9c3dc9f051e4b79bf0ddc660f74a7d0ef1202df1f4e64736f6c63430008120033",
  "linkReferences": {},
  "deployedLinkReferences": {}
}